:020000040800F2
:10000000300500204501000813190008CD1700082D
:1000100011190008B3020008211D000800000000AB
:100020000000000000000000000000001919000896
:10003000B502000800000000151900081B1900088F
:100040005F0100085F0100085F0100085F01000810
:100050005F010008171900085F0100085F01000830
:100060005F0100085F0100085F0100085F010008F0
:100070005F0100085F0100085F0100085F010008E0
:100080005F0100085F0100085F0100085F010008D0
:100090005F0100085F0100085F0100085F010008C0
:1000A0005F0100085F0100085F0100085F010008B0
:1000B0005F010008811900085F0100085F01000866
:1000C0005F0100085F0100085F0100085F01000890
:1000D0005F0100085F010008151D00085F010008AE
:1000E0005F0100085F0100085F0100085F01000870
:1000F0005F0100085F0100085F0100085F01000860
:100100005F0100085F0100085F0100085F0100084F
:100110005F0100085F0100085F0100085F0100083F
:100120005F0100085F0100085F0100085F0100082F
:10013000DFF80CD000F09CF8004800476920000868
:10014000300500200648804706480047FEE7FEE7E6
:10015000FEE7FEE7FEE7FEE7FEE7FEE7FEE7FEE777
:100160007D190008310100082DE9F0410024061B2B
:10017000254671F1000605DA01240027D0EB0700BF
:1001800067EB0101161E73F1000605DA0027D2EBBA
:100190000702012567EB030300F039F886460E4697
:1001A00017469C46AC4204D00025D0EB050E65EB0B
:1001B000010624B10020D2EB000760EB030C70466F
:1001C00031463A466346BDE8F081202A04DB203AF6
:1001D00021FA02F00021704721FA02F3D040C2F167
:1001E00020029140084319467047D2B201E000F85E
:1001F000012B491EFBD270470022F6E710B51346CB
:100200000A4604461946FFF7F0FF204610BD2DE9C7
:10021000F05F0546002092469B468846064681468A
:1002200040241BE02846414647462246FFF7CDFFC3
:1002300053465A46C01A914110D3114618462246D9
:1002400000F028F82D1A67EB01084F4622460120DE
:10025000002100F01FF817EB00094E41201EA4F109
:100260000104DFDC484631462A464346BDE8F09F9C
:10027000064C074D06E0E06840F0010394E80700F3
:1002800098471034AC42F6D3FFF756FF1C24000801
:100290003C240008202A04DB203A00FA02F1002066
:1002A00070479140C2F1200320FA03F319439040B4
:1002B0007047FEE7704700002DE9F05F90F82110CD
:1002C0000024022903D004218163012485E0016810
:1002D0000A6822F00E020A6001680A6822F0010230
:1002E0000A603F4E3E4FB215DFF8F4C0DFF8F090E1
:1002F000DFF8ECA0DFF8E8B0DFF8E4E00168783F71
:1003000013011502ACF1640CA9F15009AAF13C0AE1
:10031000ABF1280BAEF1140E4FF48018B14227D97F
:10032000B9420ED0614512D049451DD0514518D073
:10033000594518D0714501D1424615E0294EB142C8
:1003400001D1012210E0274E1436B14201D1102212
:100350000AE0244E2836B14206D0224A3C3291426D
:1003600001D11A4600E02A461E49091F0A602BE007
:10037000B94213D0614517D0494522D051451DD00F
:1003800059451DD0714501D142461AE0B14202D112
:100390004FF0807215E0134EB14201D1012210E0FE
:1003A000104E1436B14201D110220AE00D4E28360B
:1003B000B14206D00B4A3C32914201D11A4600E0CC
:1003C0002A46074980394A60012180F8211000211E
:1003D00080F82010416B01B188472046BDE8F09FAE
:1003E000800002400804024080B201F0FDBD000020
:1003F0002DE9F84FDFF8C891002409F1040A0AF149
:10040000040B23460F270BF1040ED1E00125A54074
:1004100006EA0502AA4276D1DFF8A8C14E68A6EB2B
:100420000C0866452BD00DDC032E34D005DC36B32A
:10043000012E19D0022E2FD11BE0112E16D0122E14
:100440002AD119E0B8F5881F19D006DCB8F5803F2D
:1004500015D0B8F5801F1FD111E0B8F5001F0ED0E0
:10046000B8F5041F18D10AE0CB6815E0CB681B1D56
:1004700012E0CB6808330FE0CB680C330CE08B68DC
:100480002BB1012B4FF0080303D0456104E0042396
:1004900002E0056100E00023FF2A01D8064601E0E2
:1004A00000F104064FEA840501D9A5F12005D6F82C
:1004B000008007FA05FC28EA0C0803FA05F548EA6B
:1004C0000508C6F800804D68ED0070D53E4DAE6958
:1004D00046F00106AE61AD6924F0030605F00105A2
:1004E00000953A4D06EB050CDCF80850A607360FD0
:1004F00007FA06F825EA0805DFF8D480404503D15D
:100500004FF0000825E052E0DFF8C880404502D1F6
:100510004FF001081DE0DFF8C080404502D14FF0E8
:10052000020816E0DFF8B480404502D14FF003081E
:100530000FE0DFF8AC80404502D14FF0040808E03E
:10054000DFF8A080404502D14FF0050801E04FF0F0
:10055000060808FA06F848EA0508CCF808804D684D
:10056000D9F80060ED034D4601D5164300E09643EF
:100570002E604D68DAF80060AD03554601D516438C
:1005800000E096432E604D68DBF80060ED025D46AA
:1005900001D5164300E096432E604D68DEF80060FA
:1005A000AD02754601D5164300E096432E60641CEB
:1005B0000A681646E2407FF429AFBDE8F88F0000D4
:1005C0000004014000001110001002400000014032
:1005D00000080140000C01400010014000140140DF
:1005E00000180140001C01400AB101617047090474
:1005F000FBE70000014880687047000038000020D9
:1006000002488168027811448160704738000020F8
:10061000074810B5016841F010010160032000F0A7
:100620007DF8002000F006F800F024F8002010BD4E
:100630000020024070B50D4D04464FF47A712878C1
:10064000B1FBF0F00A490968B1FBF0F000F000FBE3
:1006500048B9102C07D200222146501E00F03EF867
:1006600000206C6070BD012070BD000038000020CB
:1006700048000020104808B5816941F001018161FE
:10068000816901F001010091C16941F08051C161AE
:10069000C069002200F0805000901146052000F053
:1006A0001DF8052000F00CF80448416821F0E061D5
:1006B00041F00071416008BD00100240000001409F
:1006C000002809DB00F01F02012191404009800051
:1006D00000F1E020C0F8001170470000F0B40E4BAC
:1006E0001B680C46C3F30223C3F10705042D00D990
:1006F0000425191D072901D2002300E0DB1E012675
:1007000006FA05F1491E214099409E40761E16408A
:100710003143F0BC01F016BB0CED00E0064900F0DF
:10072000070208684FF6FF03184040EA0220034A18
:1007300010430860704700000CED00E00000FA056F
:100740002DE9F0470F46050061D0434E306800F0B8
:100750000700B84209D2306820F007003843306003
:10076000306800F00700B84251D128683B4C81073F
:1007700012D5400703D5606840F4E06060602878D7
:10078000000703D5606840F4605060606068A96845
:1007900020F0F000084360602878C00728D068681F
:1007A000012810D02168022810D0890700292EDAEC
:1007B000616821F0030101436160FFF71BFF804680
:1007C00041F288390DE021688903EFE78901EDE7FF
:1007D000FFF710FFA0EB0801494502D90320BDE84F
:1007E000F0876068696800F00C00B0EB810FEFD112
:1007F000306800F00700B8420BD9306820F00700DD
:1008000038433060306800F00700B84201D0012062
:10081000E5E72878400705D56068E96820F4E060DE
:10082000084360602878000706D56068296920F4CD
:10083000605040EAC100606000F038F86168084A22
:10084000C1F30311515CC8400649086006480068BE
:10085000FFF7F0FE0020C2E7002002400010024037
:1008600004240008480000203C00002004480549FA
:1008700000684968044AC1F30221515CC8407047CE
:1008800048000020001002401424000804480549D4
:1008900000684968044AC1F3C221515CC8407047EE
:1008A00048000020001002401424000812A185B066
:1008B0000FC98DE80F0014A0144A00680490516815
:1008C000134801F00C03042B10D0082B0ED1C1F3F8
:1008D0008343C9031DF803000AD5516804AAC1F374
:1008E0004041515C0A4A5043B0FBF1F005B07047FB
:1008F00008494843FAE7000002030405060708090F
:100900000A0B0C0D0E0F1010010200000010024027
:1009100000127A0000093D002DE9F84F040070D064
:100920002078C04DC00749D06868C0F38100012815
:1009300007D06868C0F38100022809D16868C00345
:1009400006D52868800339D560680028E7D035E0EF
:100950006068B0F5803F0BD010B1B0F5A02F11D07A
:10096000286820F480302860286820F4802002E085
:10097000286840F480302860606890B1FFF73AFE44
:1009800006460AE0286840F480202860F0E700BFAF
:10099000FFF730FE801B642873D828688003F7D5E2
:1009A0000CE0FFF727FE064605E000BFFFF722FE3A
:1009B000801B6428F0D828688003F7D420789A4EEA
:1009C00080074FF001094FF0000839D5686810F032
:1009D0000C0F07D06868C0F38100022809D168684D
:1009E000C00306D42868800714D52069012808D1DF
:1009F00010E02069B0B1C6F80090FFF7FBFD074694
:100A000005E00AE1FFF7F6FDC01B0228C4D82868FC
:100A10008007F7D52868616920F0F80040EAC10036
:100A200028600DE0C6F80080FFF7E4FD074604E00B
:100A3000FFF7E0FDC01B022823D828688007F7D401
:100A4000207800072CD57948A169D9B1C0F8009069
:100A5000FFF7D0FD074604E0FFF7CCFDC01B0228DE
:100A60000FD8686A8007F7D571484FF4FA510068CB
:100A7000B0FBF1F0009000BF0098411E0091FAD247
:100A80000EE080E0C0F80080FFF7B4FD074604E008
:100A9000FFF7B0FDC01B022875D8686A8007F7D43D
:100AA0002078400760D5E8690027C00008D4E869CD
:100AB00040F08050E861E869012700F08050009024
:100AC0005C480168C90513D40168834641F480710C
:100AD0000160FFF78FFD824606E000BFFFF78AFD49
:100AE000A0EB0A0064284ED8DBF80000C005F5D55D
:100AF000E06801280AD008B1052813D0286A20F040
:100B000001002862286A20F0040002E0286A40F010
:100B100001002862E06841F2883B98B1FFF76AFD66
:100B200082460BE0286A40F004002862EEE700BF2E
:100B3000FFF760FDA0EB0A0159455AD8286A8007E3
:100B4000F6D50CE0FFF756FD824605E0FFF752FDB3
:100B5000A0EB0A0159454CD8286A8007F6D41FB18A
:100B6000E86920F08050E861E06988B36968C1F302
:100B70008101022944D00228C6F8608004D0FFF722
:100B800039FD044638E034E0FFF734FD074604E061
:100B9000FFF730FDC01B02282BD828688001F7D44E
:100BA000206AB0F5803F05D16868A16820F4003064
:100BB00008436860D4E908010843696821F47411A6
:100BC00008436860C6F86090FFF714FD044606E02D
:100BD00025E000BFFFF70EFD001B022809D828689A
:100BE0008001F7D51BE000BFFFF704FD001B0228C2
:100BF00002D90320BDE8F88F28688001F4D40EE004
:100C00000128F7D06868226A00F48031914204D14B
:100C1000616A00F47010884201D00120EAE70020E8
:100C2000E8E7000000100240000042428004424217
:100C300048000020007000404FF0E02104280869BF
:100C400003D020F004000861704740F00400FAE788
:100C500010B5401EB0F1807F01D3012010BD4FF0D0
:100C6000E02460610F21601701F06CF80020A061A2
:100C700007202061002010BD7047704770B590F8C4
:100C80003C20012A2CD0012480F83C40022280F82C
:100C90003D2003685A689D6822F070060A68324356
:100CA0005A60104B02689A420ED00F4B9A420BD0FA
:100CB000B2F1804F08D00D4B9A4205D00C4B9A42AE
:100CC00002D00C4B9A4204D1496825F080031943A5
:100CD000916080F83D40002180F83C10084670BDCE
:100CE000022070BD002C014000340140000400408F
:100CF00000080040000C004010B5040003D094F838
:100D00003D0010B107E0012010BD002084F83C0038
:100D1000204600F01FF8022084F83D00211D2068C5
:100D200000F034FE012084F8460084F83E0084F888
:100D30003F0084F8400084F8410084F8420084F8C1
:100D4000430084F8440084F8450084F83D00002006
:100D500010BD000000B585B0002100910191029105
:100D600003910068114988421ED11148C16941F0C0
:100D70000201C161C16901F002010491816941F080
:100D8000040181618069694600F004000490C0207C
:100D900000900848FFF72CFB002211461D20FFF7AA
:100DA0009DFC1D20FFF78CFC05B000BD0004004039
:100DB000001002400008014070B5044690F83C0065
:100DC000012817D0012584F83C50022084F83D000A
:100DD0002068826822F0770222F47F4282600868ED
:100DE000502830D00DDC20284DD005DC98B31028D9
:100DF0003BD148E0022070BD302844D0402834D197
:100E000039E0602828D0702806D0B0F5805F2CD05B
:100E1000B0F5005F29D10AE0CB68D1E90121206853
:100E200000F007FE2068816841F0770109E0CB6897
:100E3000D1E90121206800F0FCFD2068816841F4BF
:100E40008041816011E0CA684968206800F003FEB3
:100E50005021206807E016E0CA684968206800F061
:100E600041FE6021206800F0EEFD84F83D50002036
:100E700084F83C0070BDCA684968206800F0EBFD4A
:100E800040212068EFE7226801461046EBE70000AA
:100E900070B51E4CA078010612D41D4D410610D528
:100EA00040F08000A0700021284600F071FA6081B7
:100EB0002868016A21F00A0101622868016A01625A
:100EC00070BD002161814020A0702868026A41F253
:100ED00011131A4207D1026A9B101A4203D1026809
:100EE00022F001020260286841622868016A21F04C
:100EF0000A0101622868016A41F002010162286862
:100F0000016841F00101016070BD00000000002097
:100F1000500000202DE9F041054690F83C000C46B9
:100F2000012836D0012085F83C008AB3042A42D03B
:100F30002868082A51D0D4E90023E168066A26F41B
:100F400080560662C669076A26F4407646EA03239D
:100F50004FF6FF7606EA013123F4704319434FF44C
:100F6000005627F4005306EA02321A43C1610262B6
:100F70002868C16921F44061C1612868C169A2681B
:100F800041EA0221C161002085F83C00BDE8F08102
:100F900001E00220FAE7D4E90012E368286800F0D3
:100FA0006BFD2868816921F00C01816128688169E5
:100FB000A26811430FE0D4E90012E368286800F04A
:100FC000A3FD2868816921F44061816128688169F5
:100FD000A26841EA02218161D5E7D4E90027267B96
:100FE000016A21F480710162C169036A21F0030181
:100FF000394321F0F00731074FF4007647EA1161D9
:1010000023F4007306EA02221A43C16102622868CF
:10101000C16921F00C01C1612868C169A26811434E
:10102000B0E710B5040003D094F83D0010B107E01C
:10103000012010BD002084F83C00204600F01EF87E
:10104000022084F83D00211D206800F09FFC012053
:1010500084F8460084F83E0084F83F0084F840009D
:1010600084F8410084F8420084F8430084F8440086
:1010700084F8450084F83D00002010BD7047000052
:1010800010B5044651B104290DD0082910D094F8A8
:10109000410094F84520012811D10EE094F83E005B
:1010A00094F84220F7E794F83F0094F84320F2E7E1
:1010B00094F8400094F84420EDE7012A01D0012083
:1010C00010BD022051B1042911D0082918D084F88C
:1010D000410084F845000C291BD13CE084F83E0017
:1010E00084F842002068C26842F0020210E084F8EE
:1010F0003F0084F843002068C26842F0040207E021
:1011000084F8400084F844002068C26842F0080275
:10111000C2600122206800F07FFC114920688842EB
:101120000ED0104988420BD0B0F1804F08D00E4944
:10113000884205D00D49884202D00D49884204D129
:10114000816801F00701062903D0016841F001011F
:101150000160002010BD2068C26842F01002D7E78D
:10116000002C014000340140000400400008004011
:10117000000C004030B5044600680D0006D0042D78
:1011800008D0082D28D00C2D08D129E0C16821F005
:10119000020102E0C16821F00401C1600022294679
:1011A000206800F039FC2068016A41F211121142F6
:1011B00007D1016A9210114203D1016821F00101A7
:1011C0000160012085B1042D11D0082D12D004F842
:1011D000410F2071002030BDC16821F00801DCE71B
:1011E000C16821F01001D8E704F83E0FF1E704F8D8
:1011F0003F0FEEE704F8400FEBE770B504460068D8
:1012000001694FF00005C943890715D4C168C94376
:10121000890711D4E91E01610120207720688069C7
:101220008007204602D0FFF733FE04E000F098F874
:10123000204600F096F8257720680169C9434907E0
:1012400017D4C168C943490713D46FF00401016181
:10125000022020772068806910F4407F204602D069
:10126000FFF716FE04E000F07BF8204600F079F866
:10127000257720680169C943090716D4C168C943A5
:10128000090712D46FF0080101610420207720685B
:10129000C0698007204602D0FFF7FAFD04E000F0A5
:1012A0005FF8204600F05DF8257720680169C943A2
:1012B000C90617D4C168C943C90613D46FF0100119
:1012C0000161082020772068C06910F4407F204623
:1012D00002D0FFF7DDFD04E000F042F8204600F008
:1012E00040F8257720680169C943C90708D1C1685A
:1012F000C943C90704D1891E0161204600F032F8B4
:1013000020680169C943090609D4C168C9430906AF
:1013100005D46FF0800101612046FFF7ADFC206825
:101320000169C943490609D4C168C943490605D4BE
:101330006FF040010161204600F03FF8206801692C
:10134000C94389060BD4C168C943890607D46FF025
:10135000200101612046BDE87040FFF78EBC70BDE2
:101360007047704709498878020606D4420604D5BA
:10137000C243920602D0401C8870704740F0800043
:1013800088704FF6FF704881704700000000002011
:101390000246002041B1042909D008290AD00C29AD
:1013A00001D11068006C70471068406B704710687E
:1013B000806B70471068C06B7047704770470000C3
:1013C00070B5026804461068D168536910F00F0FB9
:1013D00053D003F0010501F490762E435FD0C2078D
:1013E00005D0CA0503D5E26B42F00102E263420771
:1013F00005D5DA0703D0E26B42F00202E26382070E
:1014000005D5DA0703D0E26B42F00402E26302077B
:1014100007D501F020022A4303D0E26B42F0080214
:10142000E263E26B002A34D0800604D5880602D538
:10143000204600F09AFB20684069E16BC0F3801001
:1014400001F008010143204624D000F080FB206811
:10145000416949061AD5416921F040014161606B3B
:10146000A0B12D494163606BFEF726FF002810D024
:10147000606B416BBDE87040084783060FD58B0653
:101480000DD52046BDE8704000F06FBB2046FFF749
:1014900095FF70BDFFF792FF0020E06370BD03066B
:1014A0002BD50B0629D594F839002128F6D1A06850
:1014B000B0F5805F01D12069B0B1206A411C216282
:1014C000216800784860E08C401E0004000CE08435
:1014D000E4D12068C16821F08001C1602068C16842
:1014E00041F04001C16070BD206A0088C0F308006F
:1014F0005060206A801C2062E5E74006F3D548066C
:10150000F1D5D168204621F04001D160202184F836
:10151000391000F05AF970BD3F1B000870B5040087
:1015200004D094F83900002510B106E0012070BD08
:1015300084F83850204600F023F8242084F839003D
:101540002068C16821F40051C160204600F054FBBE
:101550002068016921F4904101612068416921F00E
:101560002A0141612068C16841F40051C160E5630E
:10157000202084F8390084F83A00002070BD000073
:1015800070B586B0002400940194029403942B4E0D
:1015900003682B49022003222A4DB34221D18B69D3
:1015A00043F480438B618B6903F4804304938B691C
:1015B00043F004038B618969039201F004010491F3
:1015C0000102CDE9001069462846FEF711FF2815F3
:1015D000CDE90004694628460294FEF709FF06B0EB
:1015E00070BD194EB342FAD1CB6943F40033CB61DD
:1015F000CB6903F4003304938B6943F004038B61DC
:101600008969039201F0040104910621CDE90010DB
:1016100069462846FEF7ECFE0820CDE9000469463D
:1016200028460294FEF7E4FE002211462620FFF72A
:1016300055F82620FFF744F8D1E7000000380140B4
:1016400000100240000801400044004090F83A3089
:10165000202B22D1F9B1F2B190F83830012B1CD0F7
:1016600081628285C2850021C163222280F83A20EE
:1016700080F838100168CA6842F48072CA60016854
:101680004A6942F001024A610068C16841F02001E4
:10169000C1600020704701207047022070470000A1
:1016A0001B4830B404781B49002300F10C02A4B19C
:1016B000012C1FD0022C29D1C370DBB2D45CCC54D6
:1016C0005B1CDBB2C370072BF7D3114907220C3127
:1016D000104830BC4938FFF7B9BFC370DBB2D45CE7
:1016E000CC545B1CDBB2C370072BF7D3094909222A
:1016F0000939EDE7C370074B093BC2789C5C8C54F9
:10170000521CD2B2C270092AF7D3DEE730BC704750
:1017100000000020210100202DE9F843044690F844
:1017200039001F4616460D4620284CD1C5B1BEB122
:1017300094F83800012846D0012084F838004FF092
:101740000008C4F83C80212084F83900FEF752FFDD
:10175000A6848146E684A068B0F5805F03D004E0EB
:101760000120BDE8F883206928B12E465FF000050E
:1017700084F838800EE00026FAE78021204600F049
:1017800097FAA0B9AEB116F8010B21684860E08C59
:10179000401EE084E08C4B464FF00002009700288A
:1017A000EBD14FF04001204600F082FA30B1032027
:1017B000D7E735F8020BC0F30800E6E7202084F8ED
:1017C00039000020CDE70220CBE77047FEE700009C
:1017D0002DE9F04186B00024204800940194029441
:1017E0000394816941F080018161816901F0800188
:1017F0000491816941F004018161816901F0040172
:101800000491816941F0200181618069144F00F0E9
:1018100020000490002203213846FEF7E5FEDFF8A1
:101820004480002280214046FEF7DEFE0320012591
:101830000226CDE90005CDE9024669463846FEF7A5
:10184000D7FD8020CDE90005CDE902466946404636
:10185000FEF7CEFD06B0BDE8F081000000100240AA
:10186000001C01400014014010B58AB00024274834
:1018700004940594069407940894099400940194A0
:1018800002942149039401604721C0E901144FF6F5
:10189000FF71C0E903148461FFF72EFA08B172B634
:1018A000FEE74FF48050049004A91848FFF784FA2B
:1018B00008B172B6FEE71548FFF7B3FB08B172B680
:1018C000FEE7089408A911480994FFF7D7F908B171
:1018D00072B6FEE70120CDE900400820CDE90240C4
:1018E000002269460948FFF715FB08B172B6FEE70A
:1018F0000422694605480394FFF70CFB002801D039
:1019000072B6FEE70AB010BD00040040500000208F
:10191000FEE7FEE7704770477047FEF771BE30B5CF
:101920008FB028216846FEF767FC14210AA8FEF74D
:1019300063FC01210804CDE9001000240294022573
:101940000491CDE907504FF4E01009906846FEF786
:10195000E3FF08B172B6FEE70F20CDE90A054FF4A8
:101960008060CDE90C4002210AA80E94FEF7E8FE43
:10197000002801D072B6FEE70FB030BD70470000FE
:101980000148FFF73ABC000050000020F0B50268A3
:101990001C4B1D4D1D4E1E4F1E4C4FF0804C98424F
:1019A00009D0A04207D0604505D0A84203D0B0427C
:1019B00001D0B84204D122F0700E4A6842EA0E0209
:1019C000984209D0A04207D0604505D0A84203D074
:1019D000B04201D0B84203D122F44075CA682A430C
:1019E0004D6922F080022A4302608A68C2620A6856
:1019F0008262984201D0A04201D1096901630121AC
:101A00004161F0BD002C014000040040000800408E
:101A1000000C00400034014010B501F01F0301210B
:101A2000046A99408C430462016A9A40114301623E
:101A300010BD10B5846842EA032224F47F440A43AF
:101A40002243826010BD826822F070020A4342F095
:101A500007018160704710B5036A046A24F001042D
:101A60000462846924F0F00444EA021423F00A02B8
:101A70000A438461026210BD70B5046A24F0010457
:101A800004628469056A124EB0420ED0114EB04213
:101A90000BD0B0F1804F08D00F4EB04205D00F4EA2
:101AA000B04202D00E4EB04203D124F003041443DE
:101AB00001E044F001041A0724F0F00444EA126241
:101AC00025F00A0301F00A0119438261016270BD29
:101AD000002C014000340140000400400008004098
:101AE000000C004010B5036A23F010030362836901
:101AF000046A23F4704343EA023224F0A00343EA69
:101B000001118261016210BD30B5046A24F0100435
:101B100004628469056A24F4407444EA022222F4CF
:101B200070444FF6FF7202EA03322243A02425F0EC
:101B3000A00304EA011119438261016230BD10B5AE
:101B4000406A0021C185C184FFF738FC10BD0168DF
:101B5000CA6822F49072CA6001684A6922F00102E0
:101B60004A61202180F83A10704710B590F83A1079
:101B7000222901D0022010BD82684FF480539A427E
:101B800001D1016921B1816A9A421BD04AB10AE0B0
:101B90000268816A5268C2F308020A80816A891C5D
:101BA00008E0026972B10268526802F07F020A70AE
:101BB000816A491C8162C18D491E0904090CC185D5
:101BC00003D016E002685268F1E70168CA6822F0A3
:101BD0002002CA600168CA6822F48072CA60016883
:101BE0004A6922F001024A61202180F83A10FFF789
:101BF00057FD002010BD000070B504460068016963
:101C0000E26821F44051114301612169A068084351
:101C1000616908432168CA6841F20C639A43024330
:101C2000CA6020684169A26921F440711143416191
:101C30001E492068884202D1FEF728FE01E0FEF727
:101C400015FE00EBC00101EB00126068642180000A
:101C5000B2FBF0F3B3FBF1F36FF018067343B2FB82
:101C6000F0F5B2FBF0F605EB8305322303EB051527
:101C7000B5FBF1F5B6FBF1F605F0F00505EB061541
:101C8000B2FBF0F6B2FBF0F0B0FBF1F06FF018022F
:101C9000504306EB800003EB0010B0FBF1F021682D
:101CA00000F00F002844886070BD0000003801403B
:101CB0002DE9F041984617460E460446069D1DE064
:101CC000681C1BD02DB1FEF795FCA0EB0800A842C4
:101CD00014D92068C16821F4D071C16020684169BD
:101CE00021F001014161202084F8390084F83A0094
:101CF000002084F838000320BDE8F08120680068E7
:101D000036EA000004D00020B842D9D00020F3E722
:101D10000120F9E70148FFF753BB0000D80000207D
:101D2000FEE700000FB4054B10B503A9044A029862
:101D300000F028F810BC5DF814FB000051200008EA
:101D40004C0000200907090E002804DB00F1E02008
:101D500080F80014704700F00F0000F1E02080F8D8
:101D6000141D704702E008C8121F08C1002AFAD1EA
:101D700070477047002001E001C1121F002AFBD10B
:101D8000704700002DE9FF4F8BB09A460F4604467E
:101D9000002606E025280BD052460D999047641C7A
:101DA000761C20780028F5D10FB03046BDE8F08FC2
:101DB0000025A94601227D4900E0054314F8013FB2
:101DC000203B02FA03F00842F7D120782E2817D1E1
:101DD00014F8010F45F004052A280ED06FF02F02E9
:101DE0002078A0F1300109290AD809EB890102EB1A
:101DF000410100EB0109641CF2E757F8049B641CE5
:101E000020786C280DD004DC4C2812D06A2811D11F
:101E100004E074280DD07A280CD10AE045F40015AE
:101E200007E0617845F48015814202D1641C05F514
:101E30008015641C207869283ED006DC0028B3D0C9
:101E400063280BD0642804D136E0732810D075289D
:101E50005CD052460D999047761CA5E017F8040B0C
:101E60008DF8000000208DF80100E846012003E015
:101E700057F8048B4FF0FF3069074FF0000501D48D
:101E80000AE06D1C4D450DDA8542FADB18F80510A5
:101E90000029F6D106E06D1C8542FCDB18F8051020
:101EA0000029F8D12E4404E018F8010B52460D9990
:101EB00090476D1EF8D277E000200A90C5F30250DB
:101EC0004FF00A0B02280CD001CFC117021E71F18E
:101ED00000020CDA0023D0EB030063EB01012D229A
:101EE00008E0FF1D27F00707F7E80201EEE72A05E3
:101EF00004D52B228DF82420012203E0EA070FD01D
:101F00002022F7E70DF12008089218E000200A903F
:101F1000C5F302504FF00A0B022803D001CF002175
:101F20000022EFE7FF1D27F00707F7E80201F7E7B8
:101F30005A460A9BFEF76BF9303208F8012D50EA39
:101F40000102F5D1ADEB080000F1200B680701D4C8
:101F50004FF00109D94502DDA9EB0B0000E000209C
:101F60008146002506E009A85246405D0D9990473C
:101F70006D1C761C08988542F5DB04E03020524643
:101F80000D999047761CB9F10001A9F10109F5DC22
:101F900005E018F8010B52460D999047761CBBF1ED
:101FA0000001ABF1010BF4DC641CFAE60928010026
:101FB00010B50020FEF740FE084809490068B0FB54
:101FC000F1F0C1B2074801EB41020170C2EBC1114F
:101FD0004FF6FF7202EAC101418010BD48000020A7
:101FE00000127A00440000200B49498848434FF012
:101FF000E021486100228A61086940F0010008611F
:102000000869C30701D0C003FAD5086920F00100B0
:1020100008618A6170470000440000200B4909787C
:1020200048434FF0E021486100228A61086940F08E
:10203000010008610869C30701D0C003FAD5086927
:1020400020F0010008618A61704700004400002010
:1020500013B54FF6FF73012269460248FFF75CFB98
:1020600000981CBD98000020FEF7D2FAFFF757FC3D
:10207000FFF79EFFFFF7ACFBB348B24900250160B4
:102080004FF49651C0E901150C24C560C0E9045411
:102090004FF48071C0E90615FFF740FA08B172B637
:1020A000FEE7A948A949403801604FF4E131C0E991
:1020B0000115C560C0E904548561C561FFF72EFABA
:1020C00008B172B6FEE7FFF7CFFB0722A0499E4892
:1020D000FFF7BCFA9C4800218838FEF7D1FF9A48E8
:1020E00088380068C16841F00101C160984CDFF890
:1020F0005882DFF860A2DFF860920C3C08F14908D2
:102100004FF6FF7B607810B101287DD143E04FF49A
:102110009670FEF769F90122114656465046FEF7C1
:1021200063FA0A20FFF77AFF002201213046FEF70A
:102130005BFAA078010624D500F03F01C80F000427
:1021400040EA1140628909048A184FF4AA73A2FB7D
:102150000317684100FB0370002602FB06060846D1
:10216000022200233146FDF7FFFF7C4A0023FDF7E2
:10217000FBFFC4E90C0102460B4679A0FFF7D2FD34
:10218000A57060780021401C60706F488838FEF7A9
:10219000F1FF04213AE00122022156465046FEF7A3
:1021A00023FA0A20FFF73AFF002202213046FEF709
:1021B0001BFAA078010620D500F03F01C80F0004EB
:1021C00040EA1140628909048A184FF4AA73A2FBFD
:1021D0000317684100FB0370002602FB0606084651
:1021E000022200233146FDF7BFFFC4E90C0102467D
:1021F0000B4660A0FFF796FDA5705348657004215B
:102200008838FEF7B7FF00E004E000214E48883828
:10221000FEF736FF207870B301284ED002287FF4F5
:1022200071AF012280214E464846FEF7DDF94FF49A
:102230007A70FEF7D9F8464941F2883308220F3107
:102240004148FFF769FA002280213046FEF7CCF9B9
:102250006420FEF7C9F898F8031022894BA01143B7
:102260000BEA012298F8041011432181FFF75AFD6F
:102270002581022064E0FFE7012280214E46484686
:10228000FEF7B2F94FF47A70FEF7AEF8304941F23A
:1022900088330822C91D2C48FFF73EFA002280210E
:1022A0003046FEF7A1F96420FEF79EF898F8041076
:1022B0003DA0FFF737FD257024E7012280214E461F
:1022C0004846FEF791F94FF47A70FEF78DF82049F1
:1022D00041F28833082217311B48FFF71DFA00220C
:1022E00080213046FEF780F96420FEF77DF898F8EB
:1022F000030098F80410464601EB002080B26421E8
:10230000B0FBF1F201FB1202B0FBF1F1A0802DA0B5
:10231000FFF708FD7079E18808430BEA0021B079E6
:102320000843411EE0802C2903D3A0F59E702B2882
:1023300001D22AA000E02EA0FFF7F4FC2078401C78
:102340002070DFE600440040D80000200038014043
:102350000C000020001C01400014014040420F000E
:10236000BEE0C0EBCEAA3A256C6C6420C3D70D0A40
:1023700000000000B4ABB8D0C6F732BEE0C0EBCE70
:10238000AA3A256C6C6420C3D70D0A00B5B1C7B05A
:10239000CBEDB5C0CDE2C1C1B6C8CEAA3A20256406
:1023A000204C75780D0A0000B5B1C7B0B7E7C1A6DB
:1023B000B5C8BCB6CEAAA3BA2564BCB6090A0D0A34
:1023C00000000000B5B1C7B0B7E7CBD9CEAA3A201C
:1023D00025642E2564206D2F730D0A00B5B1C7B09A
:1023E000B7E7CFF2CEAAB1B1B7E70D0A00000000FF
:1023F000B5B1C7B0B7E7CFF2CEAAB6ABB7E70D0A13
:1024000000000000000000000000000001020304C2
:102410000607080900000000010203043C2400082C
:102420000000002050000000641D00088C240008FB
:1024300050000020E0040000741D000802000000AD
:10244000000000000000000000000000000000018B
:102450000300030001740A010300060001640B017C
:102460000300000002C40B00000000000000000098
:10247000000000000100000010000000000000004B
:0C248000000000000024F4000000000038
:0400000508000131BD
:00000001FF
